:020000040100F9
:10000000A8B60021A55D0001D5580201795D000167
:10001000795D0001795D0001795D0001000000005B
:10002000000000000000000000000000ED5A000188
:10003000795D000100000000955A0001795D000122
:100040006D5B00016D5B00016D5B00016D5B00018C
:100050006D5B00016D5B00016D5B00016D5B00017C
:1000600051A401016D5B00016D5B00016D5B00013E
:100070006D5B00016D5B00016D5B00016D5B00015C
:100080006D5B00016D5B00016D5B00016D5B00014C
:100090006D5B00016D5B00016D5B00016D5B00013C
:1000A0006D5B00016D5B00016D5B00016D5B00012C
:1000B0006D5B00016D5B000153B94AB9002908BFAF
:1000C00000281CBF4FF0FF314FF0FF3000F00CB89C
:1000D000ADF1080C6DE904CE00F008F8DDF804E09D
:1000E000DDE9022304B07047704700BF2DE9F047F7
:1000F00086468C460846089E154674461946002BCF
:1001000040F0C1808542B2FA82F245D94AB1C2F1CB
:10011000200300FA02FC954094402EFA03F343EAD0
:100120000C0C4FEA154EA8B2230CBCFBFEF80EFBDC
:1001300018CC08FB00F943EA0C43994528D9EB1881
:1001400008F1FF3704D2994502D9A8F102072B44E0
:10015000A3EB0903A4B2B3FBFEFC0EFB1C330CFBA8
:1001600000F044EA0344A04214D92C190CF1FF33E7
:1001700004D2A04202D9ACF102032C44241A43EA6F
:1001800007401EB1D440002334607360BDE8F0879F
:100190004746DDE76346F1E792BB431B01214FEA87
:1001A000154EAFB2200CB3FBFEFC0EFB1C330CFB58
:1001B00007F840EA0343984561D9EB180CF1FF308A
:1001C00004D2984502D9ACF102002B44A3EB0803FA
:1001D000A4B2B3FBFEFC0EFB1C330CFB07F744EA96
:1001E0000344A7424DD92C190CF1FF3304D2A74286
:1001F00002D9ACF102032C44E41B43EA0040C0E7FF
:10020000C2F120039540944020FA03F12EFA03F343
:100210004FEA154E9040AFB20343B1FBFEFC0EFB1C
:100220001C10190C0CFB07F841EA0041884522D943
:1002300069180CF1FF3004D2884502D9ACF10200F4
:100240002944A1EB08019BB2B1FBFEFC0EFB1C1183
:100250000CFB07F743EA01439F420ED9EB180CF160
:10026000FF3104D29F4202D9ACF102012B44DB1BC7
:1002700041EA004193E76046E3E76146F7E76046FD
:10028000A4E76346B8E7834206D916B900210846B9
:100290007CE7C6E900E0F9E7B3FA83F78FB9834258
:1002A00001D3724508D8BEEB020460EB03030120C2
:1002B0009C461EB9002169E73846FAE7C6E9004CBA
:1002C000F8E7C7F1200CBB400EFA07F522FA0CF450
:1002D0002EFA0CF1BA401C4320FA0CF3B8404FEA56
:1002E000144901431FFA84FEB3FBF9F809FB1830E7
:1002F0000B0C08FB0EFA43EA00439A4540D9E31879
:1003000008F1FF3004D29A4502D9A8F10200234433
:10031000A3EB0A0389B2B3FBF9F809FB183308FB16
:100320000EFE41EA03418E452CD9611808F1FF33D6
:1003300004D28E4502D9A8F10203214443EA0040C9
:10034000A1EB0E01A0FB02984145CE46434602D3E5
:1003500006D14D4504D20138B9EB020E68EB040317
:10036000002EA7D0B5EB0E0261EB030101FA0CFCE5
:1003700022FA07F3F9404CEA0303C6E9003199E792
:100380004046C5E74346D9E72DE9F8430E46D0E994
:100390000D17D0F83080CC193034A045154619D847
:1003A0001BA3D3E900231C4FA1FB0701FFF784FE29
:1003B0000346A4EB0800A0FB070123F07F4414A32D
:1003C000D3E90023FFF778FE20F07F4034602860F7
:1003D000BDE8F883DFF840900DA3D3E90023A8FB24
:1003E0000901FFF769FE0AA3D3E90023044607F1D8
:1003F0003000A0FB0901FFF75FFE24F07F4420F0EE
:100400007F4034602860BDE8F88300BFAFF3008010
:100410008D49FD1A0700000000CA9A3B0000000049
:100420004FF6FF7C2DE9F04F63458BB01D460E461D
:100430009DF85090159C1CD0237880460133DBB288
:10044000174623706BB3002259495A4BC1E9008704
:1004500004F11C0781F80A900D819960CF6001209A
:10046000114606F0A5F960B9636D13B120460FF08F
:100470000DFA94F8240010F001071FD00BB0BDE86E
:10048000F08F40F62E134C4A4C494D4824F051F958
:1004900040F62E11484823F003FE636D002BE5D192
:1004A000E7E740F6211347494548434A24F041F91C
:1004B00040F62111404823F0F3FDC4E7042109A8C8
:1004C0001AF06AFA3846CDE90377CDE9017700974B
:1004D00040F24717099B3C490694A1FB0321A3EB7B
:1004E000010C01EB5C01090A384A07FB113338495A
:1004F000A21AA1FB02123749D20902320133059137
:10050000D2B20121099307F06BFC30F002030BD04B
:1005100031492B4840F2B273274A24F00AF940F2DD
:10052000B271254823F0BCFDD4F89480DDF824A0F6
:10053000B4F89070B8F1000F2CD05FB340F2712284
:10054000D4F8843005F1010902FB03FB0722234B99
:1005500005FB0BB5A6FB030102FB061112A3D3E9B1
:100560000023FFF7A9FD07221C4B0544AAFB03014A
:1005700002FB0A110CA3D3E90023FFF79DFD5844A9
:100580002844804586BFA8EB0505C4F89450C4F8FC
:1005900094B001E005F101094F44A4F890700BB04C
:1005A000BDE8F08FAFF3008000CA9A3B0000000066
:1005B0009030002140040021248002019C7F020130
:1005C0003C7B02014081020121F1D49008100021FE
:1005D0007D0CCEC77DD90001448102018D49FD1AF1
:1005E0002DE9F04F95B00B92002900F0FE81012813
:1005F000834600F2D082A42505FB00F5DFF820A396
:1006000099460AEB050494F8982012F0010640F090
:10061000CD82FF2394F8250084F8273000F00300F2
:1006200019F092FA94F89800410700F1878194F844
:100630003D3004EB83031E6C94F8293004EB8303F4
:10064000DF6A002E00F051813246394620460EF016
:100650006BF88046002840F0C4813B7813F00E0F01
:1006600000F0CC8103F00F03072B00F0C381AD4BEA
:100670001B78022B00F0EE82A423002203FB0BA3C5
:100680001A6500231A464FF0A4084FF00009012113
:1006900008FB0BA8C8F89420A8F8923094F82530ED
:1006A0000DF14100C3F382030B9394F82630A8F8B0
:1006B000909003EA010294F824300C92C3F34203B1
:1006C0008DF8413006F078F90246002800F07F816D
:1006D0000C990B9B0091384631460CF08BFE312271
:1006E0009149B8F88460A0FB01010AF80590C4E9BB
:1006F0000599C8E9022988A3D3E90023C8F8049022
:10070000FFF7DAFCC8F8100007F094FC00F10F03C3
:100710000B93002E00F0768294F8248069F3000891
:1007200084F8248018F0010840F019814FF0A409E2
:1007300009FB0BA9A36DD9F81070002B00F02382E0
:100740001B680D9393F8623003F00303012B0F93A2
:1007500040F019820DF1430312A901930DF14203F8
:1007600042460C91009320460B46202100F080FB6E
:100770008046002840F0358104220DF1490111A87E
:1007800025F043F90D9811990FF016FB656D002DBA
:1007900000F0B3822D680B9ABB1C13440C992846B9
:1007A000129300F0ADFFFF220346114628469846FB
:1007B0000E930EF04FFF58A3D3E900235A49A0FB34
:1007C0000101FFF779FC0246129B22F07F420233BF
:1007D000434420460D991A4401F05AF9002840F08C
:1007E000F680D9F854309DF84320DDF83C805A75E6
:1007F0009DF8423084F82930A42340F2712242F659
:10080000DC30002103FB0BA3D3F88430E3FB0201AF
:1008100040F2E2420023FFF74FFCA5F848000E9A91
:100820002846129900F0D0FA002840F0D0804FF00E
:1008300001090C9B91210893022312934FF6FF7339
:1008400007F2471C0497002738480393A6FB0002D1
:10085000374B01FB06210BEB4B02920006940297EB
:1008600043F802C013440993324B0BF1020607937D
:10087000314BF6B2059328A3D3E90023FFF71CFC04
:10088000014632460191384603210B9B009707F041
:10089000E9F90C990CF0F0F8002840F09880B9F1D3
:1008A000000F0FD095F85A3043F0010385F85A3005
:1008B000B8F1000F06D00D9A92F8623043F00203AF
:1008C00082F86230A42303FB0BA393F89820002046
:1008D00042F0010283F8982010F0EAFF002840F06F
:1008E0005F81012019F012F95AE13B7803F00F0300
:1008F000072B74D005F13C0050441AF0E9FC10F0CD
:10090000FF086ED10421062294F83D3004EB8303E6
:100910001E6C3170727097E68D49FD1A0700000059
:1009200008100021599A002100CA9A3B002AE78446
:10093000B030002135BE00012104000105F199010C
:100940003246C0F3C000514419F0C8FAFF2884F8B9
:1009500027003FF46CAE304619F03CF967E6A4235B
:1009600000200225B74A03FB0BA3CDE90200B64ED7
:10097000059212AA08920694079600901B690B9F95
:100980000BEB0502032104930193D2B23B4612956F
:1009900007F0B6F912A90CF06FF8C0B94AF2D832D4
:1009A0000092AA4A12A90891059203213B4601220E
:1009B000CDE90300CDE9010007960694129507F0F2
:1009C0009FF912A90CF058F800283FF47BAFA4233C
:1009D00003FB0BA31B6A13B120460CF02DFE4FF056
:1009E0000C08404615B0BDE8F08F15B0BDE8F04FDB
:1009F0000CF062BEBB785A067FF539AE236A002B35
:100A0000EDD10BF095FF0C90002800F018810BF051
:100A10009BFF0D90002800F00F8111F0B1FB804684
:100A2000002800F057814FF6FF720285D0F8880049
:100A300008F11C030E93002800F03D8108F17C02B0
:100A400008F1780105F02EFE002298F88E10C8F803
:100A5000882021F0070188F88E1098F87610A8F801
:100A60008C2062F3C30188F876103A7802F00F0206
:100A7000072A00F00C81012098F8762022F07702F6
:100A800042F0110288F876207F2188F8D1104FF4C7
:100A9000C0210022C8F8941198F83910C8E9122230
:100AA00001F03F0161F07F0188F83910B8F8D210E9
:100AB000A8F8322021F4807121F00101A8F8D210A9
:100AC00098F87710C8F82E2060F3020188F87710A4
:100AD00098F83C10404621F0070188F83C1088F84F
:100AE0003B20C8F85020A8F89A21A8F8902114F0CB
:100AF00023FB00220C9B88F85821C8F85C3111F0C8
:100B000091FE98F8A01160F3020188F8A01111F08D
:100B10008FFE002298F8A01160F3C50188F8A0119B
:100B200098F88C11404662F3410188F88C113A78AC
:100B300002F00F02072A0ABF94F825100121490983
:100B400012F02AFC08F1E00014F0AEF8A422002113
:100B500002FB0BA20C9BD3670D9BC2F8803008F1FF
:100B60001C032362C8E9051188F80010C8F81C802E
:100B70001AF004FA00283FF47AAD20460CF05CFD30
:100B80004FF003082DE7656D002D46D112ABA94645
:100B90000D950C934DE62E4B1B78022B3FF41FAFA7
:100BA0004FF00008404615B0BDE8F08F284B1B7889
:100BB000022BF5D194F83D2094F8293004EB820201
:100BC00004EB83032046126CD96A0DF0ADFD80461C
:100BD00000287FF406AF236D002B3FF400AF1A7995
:100BE00002F0FF0152B942F21072A4F890100B9972
:100BF000A4F8929002FB01F1C4F894101B79002B29
:100C0000CED0ECE697F8009009F00F09A9F10109A0
:100C1000B9FA89F94FEA59197EE50B9ABB1C2D6880
:100C20001344129312AB194628460C9300F068FD4A
:100C30000023CDE90D30DFE50C980BF07FFE4FF07F
:100C40000708CEE62104000135BE0001B5D400013D
:100C5000599A00210BF06CFE804688B30BF074FEAD
:100C600000283ED0A423002203FB0BA3C0F8008081
:100C70000271186594F82430DB073FF502AD42F2AB
:100C800010720B994B4602FB01F10A46FBE494F803
:100C90002520C9B2520962F3020188F8761094F84F
:100CA0002520C9B2520962F3061188F8761094F82B
:100CB00025004009E8E608F18000C8F88800BDE694
:100CC000A42303FB0BA31B6A002BB8D020460CF017
:100CD000B3FCB4E70D980BF03DFE0C980BF02EFE24
:100CE000ADE7A42303FB0BA31B6A13B120460CF052
:100CF000A3FC40460BF022FEA1E7A94699E500BF00
:100D00002DE9F04104460D46012194F824308AB0C3
:100D100094F82680C3F342030DF12300164608EA37
:100D2000010894F825708DF8233005F045FEC7F3CF
:100D3000820702463B4631462846CDF800800CF03B
:100D400059FB1FA3D3E900231949A0FB0101FFF7B9
:100D5000B3F923690546984222D20022191A01925A
:100D6000144A154B02910221A21AA3FB023200235E
:100D7000D2090A440991114909AE05911846032187
:100D8000CDE903330696D2B2009307F029F8314635
:100D90000BF072FE40B9256100200AB0BDE8F08179
:100DA000FAD90021EA1ADAE70C200AB0BDE8F0818E
:100DB00000CA9A3B081000217D0CCEC735BE000149
:100DC0008D49FD1A070000002DE9F04300268DB083
:100DD00088461746C0E905665C222149067004462C
:100DE00005F040FC40F2E24302220546B4F8480018
:100DF0001C4903FB00F00B92A0FB010116A3D3E9F1
:100E00000023FFF759F90DF12C090694CDF8209035
:100E1000216904460F4414491046079113494FF4C1
:100E20007A72059119460023CDE90367FFF744F96B
:100E300001460435EDB243462A460291304603216D
:100E40000194009606F05CFF49460BF015FE0DB0CC
:100E5000BDE8F083AFF300808D49FD1A0700000064
:100E60000C31002100CA9A3B35BE00017DEA000129
:100E70002DE9F04F40F201260027A3B08E430C4627
:100E800005460D9208931E9700F0718295F829305F
:100E900005EB8303D3F82C9004F4007399F80060F9
:100EA0000A9306F00F06072E16D023B90C263046FB
:100EB00023B0BDE8F08F0899042211F8014B20A857
:100EC00024F0A3FD21462846209A0DF07DFC06461D
:100ED000304623B0BDE8F08F99F8023013F03F029E
:100EE00009921CBF99F80320099209F104020C929F
:100EF0000A9A12B17F2B00F259822C9905F1280031
:100F00001AF0AEFA8046037899F8001023F03F03F8
:100F100001F00F010B4300F8023B99F8023098F8FA
:100F200002109B0963F3871188F802101190686D15
:100F3000002705F11C02002800F01083437D0268A1
:100F400000EB83039B69129293F803B00B93023377
:100F500010930BF001030F930B9B2D990433143066
:100F60001D931AF07DFA0746037898F8001023F0D5
:100F70003F0301F00F010B4303700B98397803789E
:100F8000099AC3F3801363F3861139700378C9B2E9
:100F9000DB0963F3C711397098F80230B9789B09FF
:100FA00063F38711B9703B1D14F001014FF0010A82
:100FB00002F001021C9340F0E781002A00F0498210
:100FC00099F800303A78C3F3801363F386123A70CD
:100FD00098F8003061F3861388F8003009F10A03AD
:100FE0000C930F9B002B40F044821C9B06331C93F8
:100FF0000BF002031B93099B9B0740F10F824FF0FC
:10100000030A0C9B3A7806330C9399F80030DB09FD
:1010100063F3C7123A701C9B06331C9398F8003098
:101020006FF3C71388F800300BF0020313B11D9B58
:1010300006331D93099B13F00803149302D00C9BF5
:1010400002330C9314F0080340F017821F931C9B8B
:101050004AF0080A02331C931BF00803159302D0D0
:101060001D9B02331D93099B13F01003169302D0AE
:101070000C9B03330C934FF018038DF84C3008F1A0
:1010800009030E93E0060BF01003179300F1AE81F5
:101090000D9BD90600F1B7810BF01003002B40F037
:1010A0004E820BF0100319931AF0100F5FFA8AF3B7
:1010B00002D01C9A03321C920BF020021892A20656
:1010C00000F176810D981D9980060A4600F1828113
:1010D0000BF02000002840F02C820BF020011A9128
:1010E0009B0602D51C9B12331C93099B580610D5F6
:1010F0000C9B01330C9395F8253003F01C03102B47
:1011000000F05E824FF058038DF84C3008F10A036E
:101110000E931BF0400F03D001321D924AF0400A9B
:101120001AF04003099302D01C9B01331C930E9BC1
:101130001199A3EB010B5FFA8BFBBBF1020F04D8F3
:101140004FF0010B08F103030E93109BD21AD2B299
:10115000022A03D801220B9B03331D930B9B5B7860
:101160009342C0F0A1811C9BB91C5B1ADBB2022B1D
:1011700002D80123F91C1C910A99002940F096819C
:10118000610500F108820D998C0540F1B5810A9A3C
:101190002092002419460A9498F8022088F801B099
:1011A0000BF1FF3B6BF3050288F80220BA78013B94
:1011B00063F30502BA707970209922461C9824F0D6
:1011C0000DFC1E9921B11C980A9A204424F01DFCA4
:1011D000BB78980600F0C980139B590640F1F38153
:1011E0000C9A0E9912F8013C541E01F8013C4E1E57
:1011F000189B13B11D9B123B1D935FFA8AF39A064D
:1012000002D51C9B123B1C931A9B23B11946122238
:101210001C9824F0E3FB169B03B1033C16F8033C37
:1012200095F825906FF3050306F8033C19F0F0FEDE
:101230004FEA5919002199FAA9F232288CBF0020EF
:1012400001208945B2FA82F208BF4FF0FF3216F84A
:10125000033C520160F386136FF3C71306F8033C97
:10126000179B06F8021C06F8012C13B11D9B033BCB
:101270001D931C985FFA8AF3DB06199B44BF033861
:101280001C9023B11946032224F0A8FB1C98149B40
:1012900003B1023C159B13B11D9B023B1D93831EA2
:1012A0001C9395F88E3016F8042C03F00F0363F3AB
:1012B000071206F8042C10F8012C63F3071200F84B
:1012C000012C1F9B002B00F0CE815A781B7802F076
:1012D0000F0243EA022316F8042C22F00F0242EA1E
:1012E000132206F8042CDAB206F8052C00F8022CBA
:1012F00010F8012C22F00F0242EA132300F8013CFF
:101300005FFA8AF39E070CD51B9B002B00F0C3816C
:101310001D9906391D911C98062206381C9024F050
:1013200074FB5FFA8AF3D8070CD50F9B002B00F0F3
:10133000B5811D9906391D911C98062206381C900E
:1013400024F063FB98F8023099061CBF9DF84C30DE
:1013500088F80330BB789A06129B18BF87F803A061
:1013600093F85A30DB0700F1438100269FE540F2F5
:101370009C539C499C489D4A23F0DBF940F29C51C8
:101380009A4822F08DFE81E5089B13F8010B089323
:101390003B7860F386133B7098F800306FF3861348
:1013A00088F80030002A3FF41CAE17E612267EE5CE
:1013B0004AF020031A93089B122218461CA90533F1
:1013C00000F8012B0422089324F01FFB1A9B1D999F
:1013D0009A46DBB20BF020000A4600283FF47DAEAF
:1013E00000221A9201F112021D9279E6089B042252
:1013F00018460533089303231CA900F8013B4AF063
:10140000100A24F002FB0BF01003002B3FF449AE4E
:10141000002319931D9B03331D9345E600297FF498
:10142000FDAD0BF00203002B00F091800B9B3A788E
:101430001B784FF0030ADB0963F3C7123A701C9B59
:1014400006331C9398F8003061F3C71388F8003016
:10145000EDE50F9B43B30B9B3A781B78C3F38013E6
:1014600063F386123A7098F8003061F3861388F8B7
:1014700000301D9B06331D93B7E5089B04221946D7
:101480000533089302231FA801F8013B0E9124F0B5
:10149000BCFA0E99042208461CA924F0B6FA1C9B3B
:1014A0004AF0080A0233D6E51F2600E50D93089B93
:1014B0000B98194640781C78821A5FFA82FC053333
:1014C00001F801CB042220A80893CDF840C00A916E
:1014D00024F09BFA0A99042208461DA924F095FAE3
:1014E0000D9B002C30D1209900297FF452AE1D9A1B
:1014F0000A942092109C06E0DDE90A104478A41AB0
:101500001D9AE4B220926218BF2A3FF7D0AC1A1994
:101510000A44FF2A40F3C48001331C44089BC145A0
:101520001C7000F0B3800B9B9F4200F0AA80452600
:10153000BDE44AF020039A461A91DBB252E71D9BA4
:101540004AF0100A199366E700210A91DBE798F840
:10155000003061F3C71388F800306BE510460DF0DA
:1015600011FF1290002800F0A5801298012290F837
:101570003130BB4600EB8303596B0F978C461CF848
:10158000023B0B9103F03F031C30CDF840C04A7082
:10159000CF700B70E0E40D93089B1EA8194605332D
:1015A00008930B9B5C7811F8013BA41A1D9A0A93CF
:1015B0002092042224F029FAE4B20A990D9BA2E7B2
:1015C0004AF0400AA5E5099B4BB1DDE91C32511EEA
:1015D0001D91591E1C9112F8012C03F8012C0E9E2E
:1015E0000C9C05E6448202013C7B0201E881020179
:1015F00095F83D30129C05EB8305394620462A6C50
:101600000DF0D6F93BA3D3E900233349A0FB010138
:10161000FEF752FD236920F07F449C4245D200260C
:101620001F1B0223DDF848805C222C494046219391
:1016300005F018F800232A4A21AD0592021D032166
:101640001846CDE90333029706950196D2B200936E
:1016500006F0C6FB29460BF00FFA00287FF426ACF3
:10166000C8F8104081E695F88E201E4902F00F025E
:1016700031F8123003F1010C21F812C0C3F30B034F
:1016800029E62D9A6B6D12785A7550E72C9B1B78C2
:1016900085F8293047E7063C21463CE6A11F4BE68A
:1016A0000A9A11191944C9B276E57FF65EAE002791
:1016B000E61AB6E7C1457FF4FAAB40F2CF530A4AC7
:1016C0000A490B4823F035F840F2CF51064822F082
:1016D000E7FCFFF7ECBB00BF00CA9A3B0C310021CE
:1016E00035BE0001E8300021E88102019482020148
:1016F0003C7B02018D49FD1A07000000000000003C
:1017000070B590F83120036A00EB82020D46516BF0
:1017100093F8212082B003EB82035A6A04460DF04D
:1017200047F900233122164EA2606360E360A0FBFC
:10173000060111A3D3E90023FEF7BEFC0346FF22F6
:1017400023F07F431146236120460DF083FF0AA357
:10175000D3E90023A0FB0601FEF7AEFC014601AA77
:10176000032021F07F4101F0DBFE10B9019B023321
:101770002B60002002B070BD8D49FD1A07000000EB
:1017800000CA9A3B0000000070B51E46C37815469B
:10179000DC074CBF00F10A04041D9A074FF0070252
:1017A000174848BF06341B07A1FB000302FB0131A9
:1017B00011A3D3E9002348BF0234FEF77DFCAD1B23
:1017C00010492844A1FB00310D09490C04D0012126
:1017D0000D4BA3FB00304509A278207822F01F02B0
:1017E000C5F3042361F3C710134320706570A37021
:1017F000204670BDAFF3008000CA9A3B0000000095
:101800008D49FD1A89888888B5814E1B000000002B
:101810002DE9F04F836D93B009931B680B906822FC
:1018200018468F490A9304F01DFF0025FF23871DEA
:101830000424CDE90E558B4E0DF1440A0DF1360905
:101840000DF140080DF1380B8DF83530FFB20CE08A
:101850000F9BAB4202D06CB3013CE4B29DF8353033
:10186000FF2B38D09F4246D00F9D002002217E4B97
:10187000CDE901890593CDE90300CDF818A0CDF895
:1018800000B00FAB0DF13502119106F06BFB022891
:1018900000F0D180119B002BDAD040F63D03324698
:1018A0007249734822F045FF40F63D01304622F070
:1018B000F7FBCDE740F63F0332466D486D4922F015
:1018C00038FF40F63F01304622F0EAFB9DF8353004
:1018D000FF24FF2BC6D140F64103324664486649D7
:1018E00022F027FF40F64101304622F0D9FB9DF857
:1018F00035309F42B8D1109B6049A3F57422A2F500
:1019000010728A420E9F07D903F1E873013F03F575
:10191000D4330E9703F5A57359490A9AA1FB031313
:10192000526E56499E0CA2F57423A3F510738B4298
:1019300007D902F1E872013702F5D4320E9702F5A9
:10194000A5720B9B596D4E4B487DA3FB0232950C43
:101950000A7D10958242D3B204D00133DBB2022B50
:1019600008BF002301EB83018C69E378D8074CBFE3
:101970000A34043499074FF00701424848BF06343F
:101980001A0748BF0234DB06A7FB000301FB07313F
:1019900031A3D3E9002348BF0334FEF78DFB731B4B
:1019A0001844B0F5161F05D36378A0F5161043F060
:1019B00040036370344BA3FB002319095B0C46D032
:1019C0000123324AA2FB0020C0F34C11627809982F
:1019D00063F3451202F0E00242EA112221706270C4
:1019E000018A838ABDF836200B441344238290F881
:1019F000242090F825109BB28A4205D0C08C1B1A77
:101A000013F4004F08BF0A46099B02EB420203EBA6
:101A1000420118310522201D23F0F7FF237A03F03D
:101A20001F03237219F0F2FA237A43EA4013237258
:101A300013B0BDE8F08F119B022B7FF42BAF022176
:101A4000002006F0E5FA119B022BF8D022E7C1F343
:101A50000C01BBE7AFF3008000CA9A3B0000000016
:101A6000E83100211483020115FB0001B882020154
:101A70003C7B0201C0820201F0820201BFBDF07F07
:101A800083DE1B438D49FD1A89888888B5814E1BEA
:101A90002DE9F043002591F84530C1E905550D7059
:101AA00001EB83039B6C0C46084659789B783E31CA
:101AB000C3F30503C91A8DB0C9B217460EF058F921
:101AC0003123DFF89C906560E560A360A0FB09010D
:101AD00021A3D3E90023FEF7EFFA40F2E243B4F882
:101AE000606020F07F402061682220461D4903FB92
:101AF00006F604F0B7FD022203460B92A6FB09018D
:101B00001E4615A3D3E90023FEF7D6FA0DF12C08E3
:101B10000694CDF820802169B41DCDE90351124906
:101B2000064607911149104605914FF47A721946FD
:101B30000023FEF7C1FA0146E4B23B462246029179
:101B4000284603210196009506F0DAF841460AF08E
:101B500093FF0DB0BDE8F0838D49FD1A070000002A
:101B600000CA9A3BE831002135BE0001DDFB0001CF
:101B70002DE9F0418A784B788AB003F13E01C2F337
:101B80000503C91AC9B204460EF0F2F81FA3D3E93F
:101B900000231B49A0FB0101FEF78EFA236920F008
:101BA0007F45AB4223D90027A3EB05080223682217
:101BB00014492046099304F055FD0023124A09AE4A
:101BC0000592821D03211846CDE90333CDF8088024
:101BD00006960197D2B2009306F002F931460AF058
:101BE0004BFF48B9256100200AB0BDE8F081FAD268
:101BF0004FF00008EF1AD9E70C200AB0BDE8F081D9
:101C000000CA9A3BE831002135BE00018D49FD1A1A
:101C10000700000000000000F8B5274C9DF818E010
:101C200094F8545015F002053FD107074FEA5006CB
:101C300004D594F8AC70BF0737D4583469B39127F2
:101C40004FEA401C1D48A4F84410A2FB00014FEAD3
:101C5000CE0E07FB021194F83C200EF0180E0CF08B
:101C6000200C66F302024CEA0E0C94F832E084F881
:101C70003C2094F854202EF0380E4CEA0E0C63F3FE
:101C8000830284F8542084F832C009A3D3E90023E6
:101C9000FEF712FAA0642846F8BD94F83C302846B6
:101CA00061F3020384F83C30F8BD0C252846F8BDEA
:101CB0008D49FD1A0700000078320021002AE784D0
:101CC00070B504469126124D02854FEA411CA3FBD4
:101CD00005019DF810E006FB03114FEACE0EA37D2F
:101CE0000EF0180E0CF0200C4CEA0E0C23F038030A
:101CF0004CEA030C84F816C003A3D3E90023FEF7D3
:101D0000DBF9E06270BD00BF8D49FD1A07000000DD
:101D1000002AE784000000002DE9F047044690F80F
:101D2000543090F832206FF30003C3F3800060F367
:101D300086128CB084F8543084F8322004F13E01CD
:101D400006F0B4F90025912194F83220B4F844301B
:101D50007B4802F0790284F83220A3FB0002C4E938
:101D6000055501FB032174A3D3E900232570E46129
:101D7000FEF7A2F9A36C31220F33984298BF0346B5
:101D8000704EA260704A2361A4EB0603A2FB0323FA
:101D900098BFA56413F47F5F6560E5600746C3F3F1
:101DA000871525D196F8943003F00703032B25D926
:101DB000D4F84880B8F1000F20D09121B6F89C30BB
:101DC0005F48A3FB000201FB03215BA3D3E90023CF
:101DD000FEF772F9874211D1D6F8A03043449F42F2
:101DE0000CD302339F429CBFA8F11003236105E08E
:101DF000012D03D196F83C30DB0770D44FF000087A
:101E000006F018F9236A00F10F06002B49D00DF1F6
:101E10002C09912146444FF0020A4FF00008CDF8FA
:101E200020900694B4F84430226945480492A3FBFC
:101E3000000201FB0321454BCDF82CA00793444B36
:101E4000CDF80C8005933CA3D3E90023FEF734F9C9
:101E5000104619464FF47A720023FEF72DF9014619
:101E60000835EDB20291334603212A4640460197D8
:101E7000CDF8008005F044FF49460AF0FDFD60B949
:101E800094F8543043EA0A0384F854300CF0F2FA20
:101E900008B300200CB0BDE8F0870C200CB0BDE802
:101EA000F0870DF12C09CDE90A3303204B46216957
:101EB0000AAA01F079FB0028ABD11FA3D3E90023C4
:101EC0000B992448A1FB0001FEF7F6F80A9B20F0CD
:101ED0007F461E449DE7504617F018FED9E7D4F818
:101EE0004880B8F1000F89D09121B6F844301448E9
:101EF0004FF00009A3FB000201FB03210EA3D3E96D
:101F00000023FEF7D9F887427FF478AFB36C4344DF
:101F10009F42FFF473AF02339F423FF66FAFA8F1C9
:101F200010032361B36CC4F8489003F10208C6F8AB
:101F3000489065E7AFF300808D49FD1A0700000067
:101F4000002AE78478320021A38B2EBA35BE000127
:101F5000ED10010100CA9A3B2DE9F04F0B790C46B8
:101F6000082B07468FB000F0F080092B00F0BE80F0
:101F7000062B0ED0BA4940F23D13BA48BA4A22F0B5
:101F8000D8FB40F23D11B8480FB0BDE8F04F22F049
:101F900087B8D1F808A0DAF818304BB1B349B14886
:101FA0008C23B14A22F0C5FB8C21AF4822F078F88F
:101FB000DAF800904FF0010B48460FF045FC00F1B5
:101FC00008085FFA88F80026A27E94F8213066F3AC
:101FD00086122760A276E660002B00F0FB8004F1F9
:101FE00022020B923546324694F82200810661D0D7
:101FF00094F9231094F823E00029C0F21E811EF00A
:10200000010F14BF04F12A0C04F1240C1EF0020F7E
:1020100018BF0CF1060C1EF0040F18BF0CF1010CD8
:102020001EF0080F18BF0CF1020C1EF010011CBFAF
:1020300061460CF1030C1EF0200F18BF0CF1120CBE
:102040001EF0400FDDF82CE018BF0CF1010CC0F3BE
:102050000500ACEB0E0C0130C0B25FFA8CFC6045A1
:1020600038BF6046984236BF181A0023C3B2002911
:1020700000F0A08091F802C091F801E04FEA0C2036
:1020800000F4F85050EA0E0000F09480002A00F0AE
:102090009B80002D00F0EB812A8F13449BB22B878D
:1020A000A3836B6B002B00F0EE80DC606C630FB0E1
:1020B000BDE8F08F013BDBB2002D00F08B802A8F52
:1020C00013449BB22B87A38399F854306A6BDB07C8
:1020D00000F1B680D460EB6A6C63002B00F09B804B
:1020E00028460FB0BDE8F04F0FF0BCBC8E68604BC7
:1020F00035689D4244D1D5F82CA0BAF1000F00F00C
:10210000A4805B493C22084604F0ACFA00F10A08BE
:102110005FFA88F8DAF800000FF0B0FB96F805B027
:1021200081460BF0070BBBF1020F00F08180BBF181
:10213000040F6ED0BBF1010F56D04949FB2349482B
:10214000494A22F0F6FAFB211DE7D1F808A0DAF897
:1021500018304BB1454943489E23434A22F0E9FADF
:102160009E21414821F09CFFDAF800904FF0040BCB
:1021700048460FF069FB00F108085FFA88F822E78B
:10218000D6F81880B8F1000F00F08B80D8F8005016
:10219000B246EB6A9E4246464CD0CA23324A354983
:1021A000304822F0C6FACA212F4821F079FF4FF0BB
:1021B000FF08AFE7002D63D0298F0B449BB22B871C
:1021C000A383002A80D06CE7BCF15F0F74D9002D87
:1021D0007FF475AFA383214638460AF0C1FB0FB0E8
:1021E000BDE8F04F0AF0C6BB0623A27E00201146D0
:1021F000237194F8213060F386112760E060A176A6
:10220000002B3FF45CAF04F12201C2F3C0020B913A
:10221000EAE60823E9E740F2F32317491148124A96
:1022200022F087FA40F2F3210F4821F039FF57E7F7
:102230000723DAE74FF0FF086CE7002DCBD043E728
:102240006B6BA3427FF431AF31E7B6230B490548EE
:10225000054A22F06EFAB621034821F021FF50E72B
:10226000C87B02013C7B020188840201E4840201F4
:102270005433002100850201CC840201F484020160
:10228000A383002AA7D040F2DB139D4A9D499E48B4
:1022900022F04FFA40F2DB11994821F001FF6B6BFD
:1022A00003E7C72399499848954A22F042FAC72183
:1022B000934821F0F5FE69E7002D00F0E9802A8FB0
:1022C00013446A6B9BB22B87002A00F0FD80D46018
:1022D0002B8F6C63A38301230878327960F30502A6
:1022E00032718A7852099340727963F302027271F3
:1022F00094F91A30002BC0F2E98099F8543013F0A9
:1023000001039DD1CAF8183091F90030002BACBF01
:102310001E224FF49672B2608F7848784FEA0727F2
:1023200007F4F85747EA000702FB07F70A78ACBF43
:102330003E234FF4A67352064CBF4FF032094FF4C0
:10234000FA7909FB07F9724A7079A2FB09294FEA69
:10235000994909F1100203EB4203012100F0070043
:10236000B36018F063FC62691BF0040FA2F1300245
:102370007FD0A17E94F82130C1F380014900DB00B9
:1023800001312B338B4003F5BC7317443F1AA7EB85
:1023900009073122FF1A0023AA606B60EB60737992
:1023A00003F00703032B70D803F10902D2005B107E
:1023B00022FA03F3574E00F22E201844A0FB060128
:1023C0004DA3D3E90023FDF777FE034623F07F43B7
:1023D000A7FB06012B6148A3D3E90023FDF76CFEA0
:1023E000B8F1FF0F20F07F4718D000202369424644
:1023F000403B3B440121CDE9000005F00DFD30F0EC
:1024000002030BD04449404840F2AA233C4A22F040
:1024100090F940F2AA213A4821F042FE3C223F497D
:10242000284604F01FF900263D4B0121CDE9073570
:102430003C4BCDE905352A692369049200F10A0273
:10244000403B3046CDE902660097D2B2019605F0D6
:1024500057FC30F002033FF42AAE334940F2BA236E
:102460002948274A22F065F940F2BA218BE5A38377
:1024700009E794F821100BF003030B440933DB0048
:10248000CBF3400B23FA0BF37FE74FF4347391E760
:102490002648CDE90C120B9304F0ACF8DDE90B31C2
:1024A00005460D9AE8B10270C0E905220263426355
:1024B000C061C0F82CA090F8200005F11C0662F362
:1024C000C71085F820002B872C6302E7A37E43F01A
:1024D0004003A376CAF8186033796FF3861333711B
:1024E000E5E594F91A30002BBFF675AEA37E43F0F4
:1024F0004003A3766FE600BF8D49FD1A0700000078
:1025000088840201148502013C7B0201F8840201E7
:1025100083DE1B4300CA9A3B288502015433002105
:10252000391B010161190101588502015033002155
:102530002DE9F04F05468BB08B46012002219A46CB
:1025400014461DF01FFF002202218146012004F0E5
:10255000FBF84FF4D4723A49284604F083F8064653
:102560000B36F6B2374B012100203246009505F0BC
:102570008BFC30F002030BD03349344841F61A7318
:10258000334A22F0D6F841F61A71314821F088FD1D
:10259000304BA4FB034828A3D3E90023204641463F
:1025A000FDF78AFD07222C4B20F07F47A7FB033164
:1025B00002FB0711E01A68EB01014FF47A72002365
:1025C000FDF77AFDCDE900B70290089506952969D7
:1025D00095F93940214804912149534631EA2401B3
:1025E00028BF01464FF6FE7405911E4932460791F9
:1025F00000200121039405F083FB30F002030BD08F
:102600001149124841F62F73114A22F092F841F60F
:102610002F710F4821F044FDB9F1000F02D10BB02A
:10262000BDE8F08F0122022110460BB0BDE8F04F4B
:1026300004F08AB8AFF300808D49FD1A070000004E
:102640005011002129210101288502013C7B020152
:10265000C085020100CA9A3B8D49FD1ADD82010145
:10266000DD840101D12001012DE9F04FB0F8209166
:10267000468EB0F82EB087B04E44BDF84440BDF849
:102680004C505E44CDE90432B6B283680294721BAA
:10269000BDF8484092B2002B0394BDF84080044638
:1026A000D0F81C710191009209DAC168426823F0E8
:1026B000004391422CBF7F18BF188360FF1A009A15
:1026C000638D02FB03F39BB2B3FBF8F202FB08F04D
:1026D00080B283421FFA82FA80F09780C01A40F2DB
:1026E000E24303FB00F058A3D3E900235849A0FBC1
:1026F0000101FDF7E1FC20F07F400744D9444D443F
:10270000AD1B40F2E24694F839305544DB09E585CB
:1027100006FB08F500F08A80226C0099A36CDFF8B4
:10272000309102FB1133A36418F072FC834694F8D5
:102730008001C0F3420018F06FFC059B834406FB48
:1027400003F305FB0BFB23650BF5742B414B0BF2DD
:102750003F2BA3FB0B3B4FEA9B4303FB0AF0236495
:10276000A5EB030BA36C6A080344963A934228BF77
:102770001346C4E911230023A0FB0901C4F88831E2
:1027800031A3D3E90023FDF797FC049B3F1A32489D
:10279000A0FB03302CA3D3E90023800A06FB00F042
:1027A000A0FB0901FDF788FC20F07F46029B29462B
:1027B000A385039B2046A4F89831A4F82A8012F040
:1027C00031FD264BA18D2B44B3FBF5F3881D9AB246
:1027D0009042A4F8922102D2521A063A92B2019B78
:1027E000A4F88E2113B10023A4F89A313B465A462F
:1027F00031462046FFF79CFE94F88C3143F00103EC
:1028000084F88C3107B0BDE8F08F08FB123140F23C
:10281000E24389B203FB01F10BA3D3E900230C4887
:10282000A1FB0001FDF748FC3F1A67E7049B08483D
:10283000AB46A3FB000104A3D3E90023FDF73CFC56
:1028400020F07F460136B1E78D49FD1A07000000F0
:1028500000CA9A3B83DE1B435917B7D17FC3C90116
:102860002DE9F04F044615460E460B6897B0D3F895
:10287000008094F820300622C3F3801314A804F1DA
:1028800022012F688DF8473023F0BFF896F8119099
:102890000DF1480BB9F1FF0F00F0F4815A4648469C
:1028A0000DF1470116F01EFE9DF8473002338DF8FA
:1028B0004730214605F118030B9351F8323B0322B0
:1028C00005F1080005F1040A0C9323F09EF8042298
:1028D00004F12E01504623F098F80B9B0522184670
:1028E00004F13E0123F091F80B9B0521184604F0FA
:1028F00063F86B7F00F03F0060F305036B7794F89B
:1029000043300128C3F30402AA77228F03F01F0388
:10291000EA8192B240F29E811B3303F01F030B2B1E
:1029200000F29881002A00F09581002140F2E243F4
:1029300032685160628F2A82EA8903FB02F20B92AD
:10294000E18ED8F854200E91002A00F0A18140F6C3
:10295000C41240F6A66398F825107F2988BF1A464E
:102960000F920021384612F071FC94F8433097F82A
:1029700080215B0963F3430287F8802118F048FB4C
:10298000034697F880010D93C0F3420018F044FB12
:1029900040F2E2420D9B0B99184401FB00F0C84B3A
:1029A00000F5742000F23F20A3FB00304B08800CA0
:1029B000963B6862AB6294F83530384602FB03F30D
:1029C000AB63A38FA7F8983112F02CFC0B99BD4B89
:1029D000BD4A0B44B3FBF1F3C7F89C219AB2A7F8A8
:1029E0009221298A881D824204DDC1F57F41FA3196
:1029F0000A4492B2A7F88E215146042207F5C2700C
:102A000023F003F8D8F85430002B00F09E81012306
:102A10000D93E20700F16A814FF48073238498F8E4
:102A2000270017F06DFB0146062204F12F00002954
:102A300000F0308104F1280122F0E7FFB9F1FF0F27
:102A400004F1290000F02981062214A922F0DDFFFB
:102A50009DF847300622594684F8223004F12300BD
:102A600022F0D3FFEB893846E3862B8A2387B7F819
:102A70009831638797F88031C3F3420384F83C3080
:102A80000FF08AFB03462146AB810C98E380746803
:102A900009F066FF1C23AA8923710D9BD4F80090CE
:102AA000E280002B40F0FE800D9B84F820300BF07C
:102AB000B1F8002840F02F812146484609F060FF18
:102AC00095F85B00012100F00700B5F85040B5F81B
:102AD000529018F0ABF809EB040104464FF00009DE
:102AE00031237A4801F518712144BB60A1FB000134
:102AF00071A3D3E90023C7F80490C7F80C90FDF741
:102B0000DBFA034640F2E24C23F07F433B616D6AFF
:102B10000B9BDDF838E05D1BF3684A460CFB0E3377
:102B2000DDF83CC0303B6344022101201C1B03F054
:102B30000BFED8F85430BBB1D3F800A050460CF0CF
:102B4000DDFB0246043248460121614BCDF800A06E
:102B5000D2B205F099F9012800F01C819AF85A3098
:102B60006FF300038AF85A3040460BF069FC0246C6
:102B70005648A4FB000114464FA3D3E90023FDF7F8
:102B80009BFA8146CDF80480B368514A403B0092DD
:102B900029F07F49A21C01210020D2B24B4405F04C
:102BA000A9F9012800F0E48098F82430DB0700F14F
:102BB000AA8038460FF0F0FA444B0446A5FB0358B0
:102BC0003DA3D3E9002328464146FDF775FA069751
:102BD000B3680722A3F1400B4FF4EE734FF0000AE5
:102BE00008933C493C4B20F07F460791A6FB0331FC
:102BF000E81A3A4B02FB061105933B6968EB0101A9
:102C00004FF47A72CDE903A30023FDF755FA01468C
:102C10000B34E4B25B460291224650460121CDE9D5
:102C2000009605F06DF830F002030BD02C492D48CA
:102C300040F2DD132C4A21F07CFD40F2DD112A48E0
:102C400021F02EFA01220221104603F07DFD17B07B
:102C5000BDE8F08F00220126C8F8142095F8203036
:102C6000214662F3000385F82030E5680C98267150
:102C700009F076FE294628682E7109F081FE17B00A
:102C8000BDE8F08F0622584614A922F0BEFE10E6D9
:102C90000F9366E622F0C4FED0E60622002122F061
:102CA000BFFED5E66B7F504643F040036B7716F0CE
:102CB00017FAE883F8E600BF8D49FD1A0700000007
:102CC00083DE1B437FC3C901404B4C0000CA9A3BC3
:102CD000A1820101718201018D49FD1ADD8201018C
:102CE000288502013C7B02018C8A02014FF481732A
:102CF00031493248324A21F01CFD4FF4817130488D
:102D000021F0CEF988E600230122184611460093EF
:102D100005F0BAF84DE72146484609F021FED8F8FB
:102D200050404046D4F800900BF08AFB5FFA80FADE
:102D3000BAF1010F0FD800231222A4F806A02271C5
:102D40002372AA8963726281B6E694F82030C3F3D5
:102D500040130D935DE64FF4AB731A491748184AB8
:102D600021F0E7FC4FF4AB71154821F099F9E2E747
:102D700009F0C0FE80453FF417AF40F2A623124988
:102D80000E480F4A21F0D5FC40F2A6210C4821F054
:102D900087F909E709F0AEFE82453FF4DFAE40F265
:102DA000A62309490548064A21F0C3FC40F2A621A2
:102DB000034821F075F9D1E6987D02013C7B0201C0
:102DC0008C8A020164800201E88A0201000000008E
:102DD0002DE9F04F04468BB0BDF858500020069501
:102DE000BDF8605017460295CDE904419DF8548026
:102DF000BDF85CB09DF8645003930EF06BFD0028A5
:102E000000F0AD8008F0010A0446504605F03EF996
:102E1000BAF1000F40F08E8001200EF05BFD0646F7
:102E2000002800F09C806B0740F18C80036A002B27
:102E300000F08E8106F11C0494F8203065F3020343
:102E400084F820306368002B00F09980D4F8049057
:102E5000D9F8005099F85A00C0F3C00100F00700FB
:102E600017F0E2FE94F8203003F00703032B70D82C
:102E700003F12802D2005B10DA40B5F86C309342BF
:102E800038BF1346A5F86C3094F8203003F00703E0
:102E9000032B61D803F12802D2005B10DA40B5F8A9
:102EA0006E3000F51870934238BF1346A5F86E30A7
:102EB000B9F85010B9F852300144B5481944A1FB93
:102EC0000001B1A3D3E90023FDF7F6F8034623F090
:102ED0007F432B61384616F059FE238C03F0BF0365
:102EE00063F0FF032384002F3DD0A8F10203012BE0
:102EF00040F2238196F85430039A68F3830386F8EE
:102F0000543094F82030149962F3451384F820303B
:102F1000062204F1080022F078FD029B2046A382DD
:102F20000021DDE904230097FEF7CAFE00200BB064
:102F3000BDE8F08F062103F0A9FB00287FF46CAFF9
:102F40001220F4E7236A002B00F0058126461C348A
:102F500072E74FF4296290E74FF429629FE70C2053
:102F60000BB0BDE8F08F17F06BFA0028BDD03A46E1
:102F70001499039816F0B2FF84F82100B5E709F020
:102F8000D7FC0790002800F0FC800FF0F9F8054608
:102F9000002800F0F380203003F024FD05F11C0927
:102FA000002840F0DB80032105F1240017F0CEFC5F
:102FB000069BD5F888006B854FF6FF73A5F82CB0FB
:102FC0002B85002800F0D5804FF0000B05F17C0226
:102FD00005F1780103F066FBB5F87630012123F4A2
:102FE000EF6323F0070343F4887343F00103A5F86C
:102FF000763095F88E30284623F0070385F88E301A
:10300000C5F888B0A5F88CB010F0C6F97F23C5F8D4
:103010002EB0A5F832B085F8D13005F1340016F0A5
:103020000BF895F83930012160F3050385F8393044
:103030000DF1270017F08AFC85F83BB0A5F89AB18E
:10304000A5F890B140F2E24B029B9DF82710A5F83D
:103050009831069B0BFB03F31A4606934D4B134422
:10306000B3FBF2F34FF4C022C5F894214A4AA2FB05
:103070000102D20802EB4202A1EB8201B5F8D22094
:10308000053122F4807222F00102A5F8D22095F8D1
:10309000392085F83A1002F03F0285F8392095F87A
:1030A0003C20A98D22F0030285F83C20881D9AB2AD
:1030B0008242A5F8922102DD063A521A92B24FF0EE
:1030C000000BA5F88E21284612F036F806992846FE
:1030D00012F0A8F895F88021079B6FF30002C5F85D
:1030E0005C3185F8802185F858B10FF09BFB95F88D
:1030F000A02160F3020285F8A0210FF099FB95F85A
:10310000A02160F3C50285F8A02195F88C2105F176
:10311000E0006BF3410285F88C2111F0C5FD3122EE
:10312000C5F804B0C5F80CB0AA60C4F80490C5E9AD
:1031300005BB85F800B0ED618CE6002016F04AFD75
:1031400094F82030D04643F0400384F82030D1E694
:10315000236A03626EE6036A2362F7E6C1230F491E
:103160000F48104A21F0E5FAC1210E4820F098FFDF
:1031700019E705F18000C5F8880025E7079809F0F0
:10318000DDFB0720D3E600BF8D49FD1A07000000D4
:1031900000CA9A3B7FC3C901ABAAAAAA847E0201D6
:1031A0003C7B0201188B02012DE9F04F04462746B3
:1031B0008DB017F8208F15460E4606220AA804F196
:1031C000280122F022FC94F82090FB07C8F3C018D5
:1031D000C9F3401900F11A8100232384B17C06222F
:1031E00011F00101777C04F12F0000F0F98004F167
:1031F000220122F00AFCFF2F04F1290B04F1230A1B
:1032000000F0F7805246384604F1220116F06AF9C0
:1032100094F822305846023306220AA984F8223054
:1032200022F0F3FB3368D3F80080EB89E3862B8A26
:103230002387B8F83030638717F0E8FE84F83C0045
:103240002F6838460EF0A8FF03460021AB813846B0
:10325000E38011F0FBFF21462068746809F080FBD1
:103260001C23AA89D4F800A0E2802371B9F1000FD1
:1032700040F0D9802146504684F8209009F080FB28
:10328000D7E90123934238BF134640F2E24295F852
:103290005A00ED89C0F3C00100F0070003F10F09E7
:1032A00002FB05F5F46817F0BFFC20340022022170
:1032B000241A012003F048FA40460EF0C5FA0246EF
:1032C0006B48A4FB0001144667A3D3E90023FCF775
:1032D000F3FE8246CDF80480B368664AA3EB090387
:1032E00000922AF07F4A04F1080253440121002091
:1032F000D2B204F0FFFD30F002030BD05E495F480C
:1033000040F2E2335E4A21F014FA40F2E2315C48C6
:1033100020F0C6FE01200EF0CBFA044688B18045AD
:1033200000F0998020460EF08FFA02460832554B85
:10333000012100200094D2B204F0A6FD30F0020377
:103340007CD14FF000080722012143464046CDF8CA
:10335000008004F099FD38460EF01EFF42A3D3E929
:10336000002304464248B668A5FB0001FCF7A4FE12
:1033700040F2124108914449069707914349054696
:10338000059139691046CDE903814FF47A721946E7
:103390000023FCF791FE01460B34A6EB0906E4B2CC
:1033A00033460291224640460121CDE900A504F0B2
:1033B000A7FC30F002030BD02F49304840F21343F2
:1033C0002F4A21F0B6F940F213412D4820F068FE53
:1033D00001220221104603F0B7F90DB0BDE8F08FCD
:1033E00022F01EFBFF2F04F1290B04F1230A7FF4C6
:1033F00009AF58460622002122F012FB5046062251
:1034000084F822800AA922F000FB0BE740F25F3328
:103410001F491A481A4A21F08CF940F25F311848C6
:1034200020F03EFED8E66B7F281D43F040036B770B
:1034300015F056FE4FF00109E8831BE74FF47E7349
:103440000D490E480E4A21F074F94FF47E710C4874
:1034500020F026FE75E700200EF02AFA0446002828
:103460003FF46FAF5EE700BF8D49FD1A0700000013
:1034700000CA9A3B55840101288502013C7B020168
:10348000188B02018984010159840101DD84010145
:10349000987D02010000000038B503460438C0B230
:1034A00001280D4614D9062B28D00B2B02D000245E
:1034B000204638BD00200EF077FE0028F7D090F9A6
:1034C0003930002BF3DB0446036920462B6038BDFE
:1034D0000CF0B6F804460028E9D0FF2211460CF0A3
:1034E000B9F80CA3D3E900230949A0FB0101FCF7BB
:1034F000E3FD20F07F402860204638BD00200CF01E
:1035000019FC04460028D2D0FF210CF031FCE8E77A
:1035100000CA9A3B8D49FD1A070000000000000018
:1035200030B585B003AD009502AB144615F0F2F945
:10353000FF282AD0021FD2B2012A0CD906280ED0A9
:103540000B2822D1DDE9023122680B44134400200C
:10355000236005B030BD2946FFF79EFFF2E700204B
:103560000CF0E8FBA0B1FF210CF002FC0BA3D3E9A7
:1035700000230949A0FB0101FCF79EFD20F07F40DC
:103580002368029A13440344E1E76FF00900E0E77F
:103590000398F5E7AFF3008000CA9A3B8D49FD1A06
:1035A000070000000000000010B584B01C4603AB0B
:1035B000009302AB15F0AEF9FF2813D0DDE902232A
:1035C00007210D481A44A2FB000301FB023108A3A6
:1035D000D3E90023FCF770FD03460020803323600D
:1035E00004B010BD6FF00900FAE700BFAFF3008030
:1035F00000CA9A3B000000008D49FD1A000000003F
:1036000001462DE9F041CD680F68696886B0096808
:103610006C6805AE0969E489022004AB03AA009630
:10362000039715F077F9FF2831D0DDE904324FF028
:103630000708234E1344A3FB060108FB03111EA336
:10364000D3E90023FCF738FD039A8030D11B0B022D
:1036500028611FD43946104604F0EEFC16A3D3E9C6
:1036600000230146A0FB060608FB0161FCF724FDD0
:103670002B6918440028286109DB40F2E24304FB6F
:1036800003F3834203D2C01A8342FCD3286106B0FD
:10369000BDE8F0811146384604F0CEFC06A3D3E91C
:1036A00000230146A0FB060608FB0161FCF704FDB0
:1036B0002B69181ADEE700BF00CA9A3B0000000021
:1036C0008D49FD1A0000000010B5144604F0B2FC4C
:1036D000214604F0B1FC034610F4000003D1DC1CC9
:1036E0000F2C02D810BD002010BD40F2D913104A93
:1036F0001049114821F01DF807211048A4FB0003D0
:1037000001FB043108A3D3E90023FCF7D5FC0C49E5
:1037100002460C4821F00DF840F2D911044820F07F
:10372000BFFC012010BD00BF00CA9A3B0000000092
:10373000D88D0201C87B02013C7B02018D49FD1A34
:103740005C8F0201FC8E020138B5044619F092FB31
:10375000A37DA27DC3F34103013303F00303032BD5
:1037600008BF002363F3420214BF03F125002520A4
:10377000A27517F017FA63680BB1236953B904F007
:1037800059FC0146002003311CF0F8FABDE838402E
:103790001CF0F0BB1CF086FB054604F04BFC014618
:1037A000002003311CF0EAFA1CF0E4FB1CF07AFB69
:1037B000294604F041FC07210346094AA0FB020206
:1037C00001FB032104A3D3E90023FCF775FC236963
:1037D0001B1A236138BD00BF00CA9A3B00000000DD
:1037E0008D49FD1A000000002DE9F04F8BB0044612
:1037F0001BF0DEFF10F0FF0013D1FF238DF8210036
:103800008DF81F008DF822308DF8203017F022FA45
:103810002146A5481BF040FE1BF08EFF0BB0BDE813
:10382000F08F1BF0E5FF05461CF00AFA8DF81F002B
:103830001CF010FA8DF820001CF00EFD8DF8210010
:103840001CF0EEFC8DF822001CF0BEF906461CF0C0
:1038500099F9EDB2074617F0FDF9002DD8D00120F7
:1038600009F0ECF90546002800F0108195F82030A9
:1038700005F1200903F00F03072B00F0C7809DF826
:103880001F30002B37D19DF82180B8F1000F40F098
:10389000F38042464FF0FF0A41465346204619F056
:1038A0000BFE0028B4D09DF82180002395F820203D
:1038B00061688DF82330F6B202F00F03002943D07F
:1038C000616891F8201088073ED4072B40F0F480FF
:1038D00094F820305A079BD00DF1230201924B46F9
:1038E000002201212046CDF800A019F02BFE00286F
:1038F00000F0BD8087E0A07D9DF82010C0F3C000DF
:1039000016F02AFC9DF8218082469DF81F20C3E70F
:10391000012B40F0058295F821200C2A40F0A78069
:103920001946002395F8202020460193CDF800A0E9
:10393000D20905F1280319F053FC002840F0C88093
:1039400095F8203003F00F03002B40F0818095F8AC
:103950002130252B1A4630D8A17D01F021012029E4
:1039600000F05C81002A3FF453AF636833B195F8EF
:10397000203003F00F03072B7FF44AAF9DF823504C
:1039800033465246414620460097019519F092FC75
:1039900000283FF43DAF10307FF43AAF3EE795F892
:1039A00020200DF1230301932046CDF800A0D20979
:1039B00005F1280319F014FC28BB95F8203003F01A
:1039C0000F03072B84D0042B7FF422AF95F821300E
:1039D000252B3FF61DAFA37DDB077FF519AF1BF04D
:1039E00015FF95F820300278C3F38013B3EBD21F94
:1039F0007FF40EAF0622083005F1220121F0DEFF30
:103A000000287FF405AF95F82120ABE70DF12203E4
:103A100001930DF121030093494608AB20460DF1B7
:103A20001F021AF05DFC9DF81F308346002B40F00A
:103A300057819DF82180B8F1000F40F069814FF067
:103A4000FF0ABBF1000F3FF430AF9DF81F2023E7C2
:103A5000062B3FF47CAF4521D94011F0010140F025
:103A60006781012BA9D195F821300C2B97D095F8BF
:103A7000203003F00F03A6E79DF8220016F0D2FBDA
:103A80009DF8218082469DF81F2005E740F2C9235A
:103A900006490748074A20F04CFE40F2C921054874
:103AA00020F0FEFAE2E600BF71CF0101CC8F0201E7
:103AB0003C7B02011C910201A17D090740F11B81A1
:103AC000002B7FF425AF95F82130252B3FF675AFFD
:103AD000042009F0B3F800283FF49AAE1CF062FA13
:103AE000E36A074643B940F27122238D02FB03F3D8
:103AF000B0FBF3F203FB1207072123681A69BE4BE0
:103B0000A2FB030301FB0231B9A3D3E90023FCF7B5
:103B1000D3FAA0F57873BB42FFF47AAE1CF01AF822
:103B200063685046059316F0F9FA94F8203007467A
:103B30005A0640F12481002800F0218183464FF08D
:103B400001091BF063FE014695F82030CDE9019B89
:103B5000894609AA039205F122022046C3F3801385
:103B60000092002219F05EFD48461BF0A9FD1BF0F3
:103B700015FE002840F01F812146A0481BF08CFC58
:103B8000002E40F01281626892F8203043F0010369
:103B900082F82030A37D43F08003A37509F070F80C
:103BA0004FF0170C4FF6FF73064680F804C0C38031
:103BB0004946242295F82050203021F026FF96F81F
:103BC0002030C5F3401565F3451386F82030B46006
:103BD0001CF068F9002130610120099D1BF084FD73
:103BE000B8F1000F08BF4FF0FF0A2D1A756186F873
:103BF00019A094F8203013F0400302D03B1E18BFE8
:103C00000123B27E63F30002B27609F039F803466D
:103C100031463068F36009F061F8FFE5D4F80490AC
:103C2000B9F1000F40F08A8096201CF029F8484630
:103C30001BF012FF3346414652462046CDE900793B
:103C400019F038FB00287FF4E3AD1BF0DFFD0646DA
:103C500003210C223378504661F30303337095F847
:103C6000203072703278C3F3801363F3C71232705E
:103C700016F054FA94F820300146580640F1868038
:103C8000002900F0838030463378062243F0400359
:103C900000F8023B21F0B9FE062205F1220106F1EF
:103CA000080021F0B2FE30461BF00AFD1BF076FD45
:103CB000002840F08D801CF05DF9A37D43F00103E6
:103CC000A37595F82030190705D194F8203043F0FA
:103CD000080384F82030214649481BF0DDFB9DE5B0
:103CE000A07D9DF82010C0F3C00016F035FA9DF8B5
:103CF00021808246A5E6BAF1FF0F8DF824A0C2F319
:103D0000801B1DD094F8212052453FF4D9AE1BE60C
:103D10009DF8220016F086FA9DF82180824690E6F2
:103D2000062B3FF414AE4522DA40D3077FF545AEAB
:103D300095F82120252A7FF615AE3EE61A4611E6B3
:103D400005F12201584609AA059116F01DFB0599B7
:103D500000283FF4F5AD94F82030C3F340135B45E1
:103D60007FF4EEAD062204F1080021F027FE95F85D
:103D7000203003F00F0300283FF4A2AEE4E594F8EE
:103D8000169004F1220BC9F38019DAE63046A37DC0
:103D90003778C3F3801363F38617062204F12201F8
:103DA00000F8027B21F031FE76E71BF0FFFE059B59
:103DB00083F8B500E7E640F2A14312491248134ADE
:103DC00020F0B7FC40F2A141104820F069F9D3E699
:103DD00040F225530B490C480C4A20F0AAFC40F253
:103DE00025510A4820F05CF965E700BFAFF3008079
:103DF00000CA9A3B000000008D49FD1A55D0010110
:103E000085CF0101D48F02013C7B02011C9102018C
:103E10002DE9F04F8DB004460D4616461BF0C8FC48
:103E200010F0FF0014D1FF238DF829008DF8270032
:103E30008DF82A308DF8283016F002FF95B3002156
:103E4000B3481BF029FB1BF077FC0DB0BDE8F08FE9
:103E50001BF0CEFC07461BF0F3FE8DF827001BF08D
:103E6000F9FE8DF828001CF0F7F98DF829001CF0F8
:103E7000D7F98DF82A001BF0A7FE81461BF082FEC1
:103E8000FFB2804616F0DCFE57B1032008F0D6FEE4
:103E9000074628B190F8203003F00F03072B1FD0FE
:103EA000002DCCD194F82030D906C8D508F0E8FE12
:103EB0000546002800F0C3800A2329462868AC6024
:103EC0002B7108F00BFF94F82030DA06B7D56FF3AA
:103ED000041321468F4884F820301BF0DDFAB2E746
:103EE00090F82130002BDBD00DF12A0300F1200BDC
:103EF00001930DF1290300930DF127020AAB5946F6
:103F000020461AF0EDF99DF827200346002A40F0DC
:103F1000A3809DF829100491002940F0C6804FF03D
:103F2000FF0A33B153462046049919F0C5FA002818
:103F3000B6D000238DF82B3063685FFA89F953B14E
:103F4000636893F8201011F0020104D197F8223031
:103F5000580600F1E9806368002B00F091806368E7
:103F6000002B9DD1002D00F0AA802B79180612D4C9
:103F7000A3691BB193F90430002B0CDB00220DF177
:103F80002B03019320465B461146CDF800A019F0A3
:103F9000D9FA002884D0BD602B79BA7EC3F3801390
:103FA00063F30412BA762B7943F080032B7108F087
:103FB00067FE1BF077FF38611BF0F4FF03464146B4
:103FC000304605931BF090FB059B1B1A7B61BB7E63
:103FD00068F38203BB76B9F1000F4DD17F23049AB9
:103FE0003B76002A08BF4FF0FF0ABB7E31469DF8A2
:103FF0002B6003F0F70366F34103BB764246464B62
:1040000087F819A0584600941AF092F80922BB7E4E
:10401000394660F3C713BB7638683A7108F05EFE24
:1040200097F91A30002B80F21182002D7FF40DAF2A
:1040300094F8203043F0100384F8203005E74FF463
:10404000547336493648374A20F073FB4FF45471A5
:10405000344820F025F82FE7CDE90520A07D9DF814
:104060002810C0F3C00016F077F89DF8293082467A
:104070000493DDE9052354E71BF098FDC3B2AEE7D6
:10408000A37D98067FF56BAF002D00F0BB812B79E7
:10409000590600F1188197F822207F2A00F220812A
:1040A0006268002A3FF462AFC9E6CDE905209DF8B9
:1040B0002A0016F0B7F8DDE90523824631E7A36947
:1040C000002B00F0A88193F90430002B11DB0022B3
:1040D0000DF12B03019320465B461146CDF800A05D
:1040E00019F030FA00283FF4DDAEA369002B3FF44D
:1040F000D9AEBC60A369BA7E1B79C3F3801363F3A6
:104100000412BA76A269137943F0800313714EE763
:10411000B1D9010181D40101DDDE0101CC8F0201A1
:104120003C7B0201689102015B4601222046CDE9F9
:1041300000A119F007FA00283FF40DAF002D00F0A0
:104140007981042008F07AFD00283FF478AE0595C7
:104150001BF028FFE36A834643B940F27122238DA6
:1041600002FB03F3B0FBF3F203FB120B07212368FE
:104170001A69CD4BA2FB030301FB0231C8A3D3E9AB
:104180000023FBF799FF7207034600F1678106F0F1
:10419000030202F12B01C6F34000C9001732D2001E
:1041A000C1405B1AC240A3F216339B1A5B45FFF471
:1041B00077AE504615F0B2FF94F8203083465B0688
:1041C00040F15981002800F0568101460122CDE9D5
:1041D00006211BF01BFB844697F8203024370097FC
:1041E0006746069A079901920BAA20460291C3F3EB
:1041F000801361460392324619F014FA38461BF0D8
:104200005FFA1BF0CBFA002840F069811BF0B2FE88
:1042100096201BF035FD30461BF01EFC0599A34887
:104220001BF03AF9B9F1000F40F05381626892F83F
:10423000203043F0010382F82030A37D43F0800357
:10424000A37508F01DFD4FF0170C4FF6FF733946AC
:10425000074680F804C02422C380203021F0D5FB1B
:1042600097F82030BC6043F0200387F820301BF023
:1042700019FE0346414630463B610B9E1BF034FA63
:10428000049B361A002B08BF4FF0FF0A7E6187F8A7
:1042900019A094F8203013F0400303D0BBF10003C1
:1042A00018BF0123BA7E63F30002BA7608F0E8FC77
:1042B000059BF860DF60002D7FF4C7AD7C4A138852
:1042C00001331380C1E5A269002A00F0CC80137984
:1042D0005A063FF544AE97F822307F2B7FF63FAE6B
:1042E00000220DF12B03019320465B461146CDF8C9
:1042F00000A019F027F900283FF431AE042008F09F
:104300009DFC00283FF4CCAD96201BF0B9FC304654
:104310001BF0A2FB1BF07AFA834603210C229BF8C8
:104320000030504661F303038BF8003097F82030DB
:104330008BF801209BF80020C3F3801363F3C712AE
:104340008BF8002015F0EAFE94F8203001465B0659
:10435000584640F19680002900F093809BF8003089
:10436000062243F0400300F8023B21F04EFB0622F8
:1043700007F124010BF1080021F047FB58461BF020
:104380009FF91BF00BFA002840F096801BF0F2FD1D
:1043900008F076FC09233B71002D00F0B18029461E
:1043A0004448BD601BF078F82B7943F040032B7133
:1043B0001BF078FD38611BF0F5FD414604463046A0
:1043C0001BF092F9241A7C61B9F1000F40F094803F
:1043D0007F20049BBA7E002B08BF4FF0FF0A9DF898
:1043E0002B3002F065025B0042F0080223F07D03EF
:1043F0001343387639463868BB7687F819A008F039
:104400006DFC22E5A269002A7FF461AF6368002B8E
:104410003FF45DAE46E50DF12B0301932A465B4662
:1044200029462046CDF800A019F08CF800287FF42A
:104430005CAE37E5A3690593002B3FF433AD042050
:1044400008F0FCFB00287FF483AE2BE5184A1388A4
:1044500001331380002D7FF4F2AC34E54FF4CA62CF
:10446000A0F535639FE66268002A7FF4E8AC1B067E
:104470007FF584AD8FE5A27D04F12201C2F38012A5
:10448000A5E6A37D9BF80020C3F3801363F3861297
:1044900000F8022B04F12201062221F0B6FA66E7A9
:1044A00000CA9A3B000000008D49FD1A75DB01012E
:1044B000EE99002129DB010140F2794316491748A2
:1044C000174A20F036F940F2794115481FF0E8FD0F
:1044D0005CE71BF06BFB636883F8B500A6E640F26F
:1044E000E1330D490D480E4A20F023F940F2E13145
:1044F0000B481FF0D5FD89E61BF058FBC0B268E7FA
:1045000039460848BC601AF0C7FFA269137943F026
:10451000400313714CE700BFD48F02013C7B0201C2
:1045200068910201DDDA010101481EF071BD00BF92
:104530009C09002138B5094D4FF0FF324FF0FF3391
:10454000284621F050FB044621F0C8FA10B120465D
:104550001CF080F91FF0B4F9EEE700BFCC09002190
:10456000034673B5054613F8010B0E46022801F108
:10457000FF3424D0052834D0012843D1022C41D95E
:1045800003220020CDE900320022002301F042FE88
:104590000446B8B3EB78321F9A4204D002B0BDE8AB
:1045A00070401CF057B9291D04F10C0021F055FB97
:1045B0002146154802B0BDE8704021F01ABB032C1B
:1045C00020D90422CDE900320022002301F022FE8E
:1045D0000446B8B1B5F80330721F9A42DED1691DA6
:1045E000E2E7032C0ED904200022CDE9003000239D
:1045F00001F010FE044628B1B5F80330721FC3F372
:104600000D03EAE702B070BDCC09002170B528485F
:1046100088B001F03BFE00220023CDE906230023F1
:104620006FF00802CDE90133CDE9032300934FF485
:104630008062204B204921481EF078FB20491F480A
:1046400022F026FB1F4820F082F81F4A1F491D4810
:1046500020F08BF84FF0FF324FF0FF331C481EF074
:10466000FDFC134D194E4FF0FF324FF0FF3328463B
:1046700021F0B9FA017E0446032906D0052905D0A8
:10468000012910D01CF0E6F8EDE7022104F10C003E
:1046900021F0ECFA3046228AE16820F07AF800280E
:1046A00003DB2046EEE70421F0E71FF009F9F1E70C
:1046B000B409002135450001709A0021680A0021E3
:1046C000549502019876020110000021F81400218F
:1046D0009C090021014B1B68184700BF28000021DE
:1046E00007B50B46002102460091034800F014F97B
:1046F00003B05DF804FB00BFD54600012DE9F0478B
:10470000058B04462807904611D4022905F00705B9
:1047100040F0CD8020461FF0A2FE78B10138218BF9
:10472000042811D8DFE800F0C3106D859500012939
:104730000CBF45F0100545F02005258388F311884E
:10474000BFF36F8FBDE8F08701F0070AAA4500F0BC
:10475000A6800027B9463E46A368002B00F0BD8026
:1047600041F00801218388F31188BFF36F8FA1689E
:10477000002900F0BB800D68002900F0B7803346A7
:1047800052462046D1F80480C047002D76D02B68D1
:1047900029461D46F0E701F007035A1F012A1BD8DE
:1047A000002221F00701062B276889B2C4E9002204
:1047B00009D13B4603E0628B013262831B68002B08
:1047C000F9D141F00201204621831FF048FE002864
:1047D0007BD041F0200177E0042B0AD121F00701C2
:1047E00089B2204621831FF03AFE10B141F020012A
:1047F0002183218B01F0070AAA4550D00027B94632
:10480000AAE7236921F0070141F00601062DD3F83C
:10481000009021832DD1B9F1000F40D041F0080163
:10482000218388F31188BFF36F8F20463949C84729
:1048300029E021F00701236941F0040189B2042D28
:10484000D3F804902183E6D000274FF0040A3E46B7
:1048500082E721F00701236941F0050189B2052DA6
:10486000D3F808902183D6D000274FF0050A3E46A2
:1048700072E700274FF0060A3E466DE72B4687E7B2
:10488000B9F1000FD1D14FF02003EFF3118883F37A
:104890001288BFF36F8F238B23F008032383258BAC
:1048A000EA062ED525F01003238305F00705666977
:1048B000218B002EBFF66FAF00232768C4E90033B9
:1048C00021F0070141F001012183218B4FF0000904
:1048D00001F0070AAA457FF43FAF002F9BD041F0BB
:1048E0000801218388F31188BFF36F8F002FC7D091
:1048F0003D6839463346524620461FF0DCFD2F46C0
:10490000F4E7AB067FF51AAF25F02003238305F00B
:104910000705FFE6E34402012DE9F04F81468B468F
:1049200017461C46002595B0387808B9284657E345
:104930007B1C2528039306D05946C8470028C0F29F
:104940004F830135FBE1182200210EA821F068F801
:104950007B78252B7DD0002398469E469C461E469C
:10496000781C014610F8012B2B2A00F0A18000F2E0
:104970009880202A00F09F80232A00F09F802BB18E
:104980009DF8403043F040038DF84030B8F1000FFF
:1049900005D09DF8403043F020038DF84030BEF143
:1049A000000F05D09DF8403043F010038DF84030E3
:1049B000BCF1000F05D09DF8403043F008038DF89E
:1049C00040302EB19DF8403043F004038DF8403064
:1049D0009DF8403003F04400442803D16FF3861360
:1049E0008DF840309DF840302A2A43F080038DF83E
:1049F00040307FD19DF841204B1C42F001028DF8E0
:104A000041201A782E2A0CBF012100219DF8412057
:104A100061F341028DF8412078D15A782A2A6ED06C
:104A200000224FF00A0C0133194611F8010BA0F1D6
:104A30003006092E40F295809DF840101292C1F385
:104A4000400040EAD2700A4660F341028DF84020EF
:104A50005CE0BA1C03928DF843309DF84130DA07D0
:104A600040F12E8154F8048BB8F1000F07DA9DF85D
:104A70004020C8F1000842F004028DF840205E0793
:104A800040F1278154F804ABBAF1000F80F226817F
:104A90009DF841306FF341038DF841304FF0FF3AFC
:104AA0001CE12D2A0DD0302A7FF469AF012358E78D
:104AB0004FF0010C55E74FF0010E52E74FF001089F
:104AC0004FE701264DE703460EFB0262303A1846D7
:104AD00010F8016BA6F1300CBCF1090FF3D9994223
:104AE0008FD09DF840101192D20F62F341018DF8E2
:104AF000401086E70B4600224FF00A0EE7E79DF8CC
:104B00004120023342F004028DF841201A786C2AC9
:104B100047D02BD8682A31D06A2A4BD04C2A51D0A2
:104B20001A4612F8013B782B03928DF843309DF81A
:104B3000412000F2BE806D2B51D8692B00F2B98064
:104B4000572B67D8412B03D0453B022B00F2B18095
:104B500004229DF8423062F302038DF842300123B3
:104B600073E00CFB02020B46303A5DE7742A25D055
:104B70007A2AD5D106219DF841200CE05A78682A7E
:104B80009DF8412006D1012161F3C6028DF8412034
:104B90000233C5E7022161F3C6028DF841200133DB
:104BA000BEE75A786C2A9DF8412001D10421EBE739
:104BB0000321F0E705219DF84120ECE707219DF84E
:104BC0004120E8E7BDF8402022F4F04222F0020242
:104BD00042F4804242F00202ADF84020DFE76E3B33
:104BE000D9B201238B4040F282410B4237D113F0FE
:104BF000240F51D1D8075CD503219DF8423061F3D1
:104C000002038DF8423002F07803A3F140014B42D9
:104C10004B411AE00120A3F15801C9B200FA01F199
:104C200011F4624F94D140F6010631421DD111F4C6
:104C3000043F3ED09DF8423060F3020302F0780258
:104C4000402A8DF8423034D000239DF84020C2F332
:104C500040010B4363F341028DF84020FDE6022141
:104C60009DF8423061F30203E8E702209DF842100C
:104C700002F0780260F30201402A8DF8421002BF70
:104C80009DF8401041F001018DF84010632BDBD1FD
:104C9000131E18BF0123D8E703219DF8423012F0FC
:104CA000780F61F302038DF8423014BF0123002313
:104CB000CBE79DF8403043F001038DF84030C3E767
:104CC0009DF94020002AACBF4FF0FF38DDF844804A
:104CD000D5E698077FF5E2AEDDF848A00023CDE9E0
:104CE00011339DF842309DF8411003F00703012B6A
:104CF000C1F3C30133D1CB1E042B04D8DFE803F08A
:104D0000214646212100236801294FEAE372CDE9BB
:104D10000E321CD19DF93830DA17CDE90E32043449
:104D20009DF8403013F0030650D03A4659464846A5
:104D3000039B1FF0E7FC0028C0F252810544039F4B
:104D4000F2E554F8043BDA17CDE90E32E8E7022920
:104D5000E5D11AB243F3C033CDE90E23DFE7022BCE
:104D600024D1CB1E042B04D8DFE803F01810101850
:104D7000180001294FF0000254F8043B14D0022916
:104D8000CDE90E32CCD19BB20E93C9E7073424F0A3
:104D90000704F4E80223CDE90E23C1E754F8043BED
:104DA0000E9300230F93BBE7DBB2CDE7042B08D1B2
:104DB000073424F00704D4E900230834CDE90E2396
:104DC000AEE7032BACD154F8043BDDE79DF843007C
:104DD0007828B4D862281CD825283FF4ADAD5828CF
:104DE000ADD1DDE90E010DF13603009310AA08AB39
:104DF0001FF042FCBAF1000F074680F29980002FA5
:104E00009DD00DF13603D81B002E00F0C08001307C
:104E1000BDE06338152892D801A252F820F000BFF7
:104E2000F54E0001074F00013F4D00013F4D0001CD
:104E30003F4D00013F4D0001074F00013F4D000174
:104E40003F4D00013F4D00013F4D0001934F0001D8
:104E50002B4F0001514F00013F4D00013F4D00011C
:104E6000794E00013F4D00012B4F00013F4D0001E5
:104E70003F4D00012B4F0001BAF1000F0E9F35DBB3
:104E80005146384620F072FD07EB000A002F3FF430
:104E900056AF00269DF8423013F01002059200F044
:104EA000928002305B06119A48BF129B104448BFA3
:104EB000C018B8F1000F049240F39F809DF8402085
:104EC000A8EB0008C2F380035007069300F1958019
:104ED000510640F188803EB159463046C847002807
:104EE0007EDB069B01351E4630227DE0384620F0F1
:104EF00036FDC9E70E9B002601208DF8203008AF53
:104F00000DF1210AC6E719075ABFC3F300135E016A
:104F10002B26DDE90E23002BBFF663AF524263EB75
:104F200043032D26CDE90E235BE7002659E7002633
:104F30009DF840200DF13603DB1B6FF386129A4576
:104F40008DF840207FF65BAFAAEB0303119356E781
:104F50000E9890B30DF136030093002108AB10AA10
:104F60001FF08AFBBDF84230BAF1000F03F0EF03E7
:104F700043F4F04343F010030746ADF84230D6DA6D
:104F800000283FF4DCAE00260DF13603181A9A46CD
:104F900080E70E9B07293FF6D2AEDFE801F00C0454
:104FA000060C08080C0C1D70C9E61D80C7E6EA1740
:104FB000C3E90052C3E61D60C1E62F4F064607F164
:104FC000050A052066E71A0748BF01306AE7104660
:104FD000079306925946C847DDE90623002804DAFC
:104FE00015B0BDE8F08F202243461946002903F191
:104FF000FF33ECDC454498466D1A2EB159463046D5
:10500000C8470028ECDB01359DF84230DA0601D4B0
:105010001B0705D559463020C8470028E0DB01357D
:10502000059B33B159469DF84300C8470028D7DB9C
:105030000135049E2E4405E059463020C84700281B
:10504000CEDB0135731B002BF6DC53463A4659463E
:1050500048461FF057FB0028C2DB0544A844A8EBD4
:105060000503002B7FF76BAE59462020C847002868
:10507000B6DB0135F3E700BF879502014FF020034F
:10508000EFF3118183F31288BFF36F8F01237F2029
:105090000B4AC2F840350B4BC3F818010020C2F888
:1050A000040EC2F8080EC3F82401C3F82C0103F55E
:1050B0007F23C3F8100181F31188BFF36F8F70470E
:1050C0000000084100200041052370B5174D184E1F
:1050D0002C780134B4FBF3F303EB8303E41A20F0E0
:1050E000D7FE144A144B117851B156F82410401AC7
:1050F000072805D81A780AB901221A70002070BD55
:10510000002119700D4BD3F8140138B1C3F81411F4
:10511000D3F814312C700CB9012313702C7820F0C3
:10512000B7FE46F824000120E9E700BFF699002108
:1051300000150021F5990021F4990021005000414B
:1051400020B1034B800143F001031847704700BFB3
:10515000E07802011CF050BB30B50C460E4985B01A
:105160000291D0F8AC110546CDE9003100F1E00123
:105170004FF0FF3320461DF097FA50B9012384F811
:105180006430D5F8A83123B1204605B0BDE83040E1
:10519000184705B030BD00BFB548020138B50C4610
:1051A000114605461FF088FB034638B928460449D6
:1051B0001FF082FB03460020236038BD0120FBE77F
:1051C0008A9702012DE9F04F01238146056946685F
:1051D00085B005F55977D7E8EF2F002A03D1C7E846
:1051E000E13F0029F7D140F0B880B368B26A043BD0
:1051F0002632B3EB420F4FEA420126BFB3FBF1F375
:10520000B3FA83F300234FF0010428BFC3F1200356
:10521000013B9C4005F5E47800F0998010220821BC
:1052200070689A4002EB4402043099400932C5F894
:105230006002063122F003020A44B16A01FA03FC5B
:10524000510001EB4C01C5F86412B16A994000EBC2
:105250004103C5F858320333134423F00303C5F860
:1052600054327368C5F85C42C5F850323C4B404636
:10527000C5E9A963316800F01DFA044630BBD9F8CE
:1052800004A0D9F81090DAE9073409F5307B012B36
:10529000584608BF103C21F07EFE0023DAF82400B7
:1052A00030494FF4806201EB802100935846234639
:1052B0001EF01AF809F52C702B4921F03EFEDAF8A1
:1052C000140083685C681CB96FF05704002137E054
:1052D0004B46264ADAF81810A04704460028F5D1B4
:1052E000DAF8140083681B69002BEDD00122DAF88C
:1052F0001810984704460028E8D11D4B2846C5F8E9
:10530000A8311C4BC5F8AC311B4B0393D5F81032B8
:105310000293D5F80832CDE90083D5F86832B26A35
:10532000D5F8601300F08EF904460028CED105F1BF
:10533000E0001DF067FA0028C5F868030ADB0221C7
:1053400038461FF0EEFA204605B0BDE8F08F6FF04A
:105350000B04BBE76FF01504B8E76FF07704F2E7D2
:105360000B490201709E0021F1480201E54802014B
:1053700041540001C3490201534902012DE9F84398
:1053800006464FF001090569D0F8048005F5597704
:10539000D7E8EF3F022B03D1C7E8E29F002AF7D1FD
:1053A00049D1264805F1400120F0E9FA20B16FF01B
:1053B0000F042046BDE8F883204805F1B00120F035
:1053C000DEFA0028F3D12846D5F860131FF02CFB35
:1053D000044670BB71683669486983681B6933B3DA
:1053E000224689699847044618BB06F53076494637
:1053F00030461DF0B1FF304605F5E47600F04CFD77
:105400003046D8F800101FF04CFB044688B901461E
:10541000E822304620F004FB21464FF4E272284691
:1054200020F0FEFA214638461FF07BFAC1E76FF004
:1054300057040221F7E76FF07704BAE78A97020171
:1054400013B5044640B100230122CDE90032074BD9
:10545000D0E909121DF0DCF8A36E1B6823B1E06EE1
:1054600002B0BDE81040184702B010BD8A97020193
:1054700013B504460846216901F55971D1E8AF1FFB
:10548000022910D193B1A0B10121CDE90031134619
:10549000D0E909121DF0BCF8074B984208BF6FF025
:1054A0000B0002B010BD6FF00F00FAE76FF04C0078
:1054B000F7E76FF00100F4E72EF8FFFF2DE9F7435F
:1054C00088461546066906F55973D3E8AF3F022BA7
:1054D0005FD1136823B96FF0150003B0BDE8F08306
:1054E0001B78002BF7D0D6F86093B9F1000F33D1B9
:1054F00006F5D8774FF0FF324FF0FF3338461DF0F6
:105500009DFC30462A6801A9FFF748FE019C1CB9A2
:1055100038461FF004FADEE705F10803A3666B695D
:1055200084F86490E366E46360B138461FF0F7F9ED
:1055300021463046236E2A68FFF70EFE0020C8F889
:105540000040CAE72022296804F1400020F0F3F966
:1055500038461FF0E4F9F1E730460F491FF0ACF987
:1055600004460028B7D005F1080383666B69C06361
:10557000C366002380F8643020222968403020F080
:10558000DAF922460121304600F03EF80028D5D055
:10559000A1E76FF00F00A0E78A9702012DE9F04F15
:1055A00005460E4690460027D0F8B0A085B0AAF573
:1055B000AE742146304620F0E2F9E0B9114BA4F177
:1055C000400B0293DAF810303246CDE900832946C9
:1055D0004FF0FF335846AAF5CE791DF065F860B953
:1055E0007023012203FB079383F86420DAF80C3060
:1055F0000BB158469847703417B105B0BDE8F08F2D
:105600000127D6E7254A02011FB5144690B18AB199
:10561000012912D10A4B00F1E0010293D0F8AC311C
:10562000403201934FF0FF33204600931DF03CF8C9
:1056300004B010BD6FF01500FAE70020F8E700BFD6
:10564000254A02012DE9F04387B00E46DDE90E81BF
:105650001446DDE910251F4630B329B3DFF850C0EA
:1056600000F1E009002D08BF65469EB9CDE903446D
:1056700000F5CE742046059621F052FA03ABCDE931
:1056800000432A463B46414648461DF0E1F807B034
:10569000BDE8F083002241460E9248462A4607B0F4
:1056A000BDE8F0431DF0FEB96FF01500EFE700BF55
:1056B0009D550001F0B50E46044689B000286FD014
:1056C00001230246C3630023D0F89810364F4030C0
:1056D00040F80C7C42F8301FCDE901334FF0FF3326
:1056E0000093C36D20F0DAFC304A06AB92E8030069
:1056F00083E8030018461CF0ABFE0546D8B904F158
:1057000034001CF085FE0546A8B93946284805AA8C
:1057100020F096FC054670B9059B9A6872B10C336F
:10572000D4F89400C4F8A0301FF0ADF9C4F8D40048
:1057300030B96FF00B05284609B0F0BD0346EFE71E
:10574000D4F894001FF09FF9C4F8D8000028F0D0D6
:10575000D4F88C30D4F8A010C4F8A8300423C4F8CE
:10576000AC30C4F8C4300223A362124BB4F89420C6
:10577000D4F8D470C4F8B810C4F8D010D4F890108D
:10578000236204F1A403A4F8B020C4F8A470C4F800
:10579000C010A4F8C820C4F8BC00A661E362CAE740
:1057A0006FF01505C7E700BFA2950201B0780201AE
:1057B000AC95020114790201014B1868704700BFD3
:1057C000580000210822F0B589B01FF036FBCB6AE3
:1057D000002703930B6B0C4604934B6B0646059313
:1057E0008B6BCDE901770693CB6B0097079313463C
:1057F0006A46114610461FF030FA314605463046DB
:105800001FF02BFA216B05440391616B1046049144
:10581000A16B0591E16BCDE9061711461FF01DFA4A
:105820003146054430461FF018FA0544206ACDE998
:1058300004770090606A03970190A06A0290A06BC1
:105840000690E06B079030461FF007FA0544606A47
:10585000D4F838C00090A06ACDF810C00190E06A7A
:10586000D4F83CC00290606BCDE905C00390206A7B
:10587000079030461FF0F1F90544E06ACDE904775E
:105880000090206B03970190606B0290206A069055
:10589000A06A079030461FF003FB236B2D1A00937C
:1058A000636B30460193A36B0293E36B0393636ACC
:1058B0000693E36A079308231FF0F2FA636B2D1A2D
:1058C0000093A36B30460193E36B0293236A039327
:1058D000636A0493A36ACDE90537236B0793082312
:1058E0001FF0DEFAA36B2D1A0093E36B3046CDE96F
:1058F0000137636A0393A36A0493E36A0593636BB6
:10590000079308231FF0CCFA2D1A10D40D4C35B98B
:105910000822314620461FF09CFA01280FD00823A8
:105920002246314630461FF0BBFA2D1AEFE7054AF2
:105930000823314630461FF090F92D18F8D409B0ED
:10594000F0BD00BF3C790201014910220A60704796
:1059500010ED00E072B6404080F31188BFF36F8F06
:1059600001B5FFF7B1FB002802D0BFF34F8F30BF66
:10597000BDE8014062B6BFF36F8F704772B6494011
:1059800081F3118801B5FFF79FFB002802D0BFF318
:105990004F8F20BFBDE8014080F3118862B6704789
:1059A00040B2002807DB01234109034A00F01F0031
:1059B000834042F82130704700E100E040B2002807
:1059C0000CDB01220649430900F01F00824020330E
:1059D00041F82320BFF34F8FBFF36F8F704700BF95
:1059E00000E100E0054B420953F82220012300F0BA
:1059F0001F0003FA00F01040704700BF00E100E014
:105A000040B2002801F10101ACBF00F16040064B3B
:105A10004FEA4111C9B2ABBF00F5614000F00F0081
:105A200080F800131954704714ED00E030BFFFF701
:105A3000FDBF00BF08B5084B084A23F07F03936001
:105A4000BFF34F8FBFF36F8F1DF07EF81EF04CF841
:105A500000F09CF91DF0B8F80000000100ED00E036
:105A6000094A0A49936809689867D96708494B68E1
:105A700043F080534B60002383F31188BFF36F8F93
:105A80009368D86F704700BFAC9900213895020128
:105A900000ED00E013498A684FF030001044EFF346
:105AA000098C80E8F01F202080F31288BFF36F8FED
:105AB0000D4F4FF000668A698A603E60906F002348
:105AC000936780F3118802F1300090E8F01F8CF3A7
:105AD000098802F1000004B51FF003FFBDE804408F
